{
  "contractName": "PomodoroManager",
  "abi": [
    {
      "inputs": [
        {
          "internalType": "contract PMToken",
          "name": "_pmToken",
          "type": "address"
        }
      ],
      "stateMutability": "nonpayable",
      "type": "constructor"
    },
    {
      "inputs": [
        {
          "internalType": "uint256",
          "name": "",
          "type": "uint256"
        }
      ],
      "name": "doers",
      "outputs": [
        {
          "internalType": "address",
          "name": "",
          "type": "address"
        }
      ],
      "stateMutability": "view",
      "type": "function"
    },
    {
      "inputs": [],
      "name": "name",
      "outputs": [
        {
          "internalType": "string",
          "name": "",
          "type": "string"
        }
      ],
      "stateMutability": "view",
      "type": "function"
    },
    {
      "inputs": [],
      "name": "owner",
      "outputs": [
        {
          "internalType": "address",
          "name": "",
          "type": "address"
        }
      ],
      "stateMutability": "view",
      "type": "function"
    },
    {
      "inputs": [],
      "name": "pmToken",
      "outputs": [
        {
          "internalType": "contract PMToken",
          "name": "",
          "type": "address"
        }
      ],
      "stateMutability": "view",
      "type": "function"
    },
    {
      "inputs": [
        {
          "internalType": "address",
          "name": "",
          "type": "address"
        }
      ],
      "name": "pomodorosCompleted",
      "outputs": [
        {
          "internalType": "uint256",
          "name": "",
          "type": "uint256"
        }
      ],
      "stateMutability": "view",
      "type": "function"
    },
    {
      "inputs": [
        {
          "internalType": "address",
          "name": "_doer",
          "type": "address"
        }
      ],
      "name": "redeemToken",
      "outputs": [],
      "stateMutability": "nonpayable",
      "type": "function"
    }
  ],
  "bytecode": "0x60806040526040518060400160405280601081526020017f506f6d6f646f726f204d616e616765720000000000000000000000000000000081525060009080519060200190620000519291906200010e565b503480156200005f57600080fd5b5060405162000b6838038062000b688339818101604052810190620000859190620001d5565b80600260006101000a81548173ffffffffffffffffffffffffffffffffffffffff021916908373ffffffffffffffffffffffffffffffffffffffff16021790555033600160006101000a81548173ffffffffffffffffffffffffffffffffffffffff021916908373ffffffffffffffffffffffffffffffffffffffff16021790555050620002c8565b8280546200011c9062000249565b90600052602060002090601f0160209004810192826200014057600085556200018c565b82601f106200015b57805160ff19168380011785556200018c565b828001600101855582156200018c579182015b828111156200018b5782518255916020019190600101906200016e565b5b5090506200019b91906200019f565b5090565b5b80821115620001ba576000816000905550600101620001a0565b5090565b600081519050620001cf81620002ae565b92915050565b600060208284031215620001e857600080fd5b6000620001f884828501620001be565b91505092915050565b60006200020e8262000229565b9050919050565b6000620002228262000201565b9050919050565b600073ffffffffffffffffffffffffffffffffffffffff82169050919050565b600060028204905060018216806200026257607f821691505b602082108114156200027957620002786200027f565b5b50919050565b7f4e487b7100000000000000000000000000000000000000000000000000000000600052602260045260246000fd5b620002b98162000215565b8114620002c557600080fd5b50565b61089080620002d86000396000f3fe608060405234801561001057600080fd5b506004361061007f576000357c01000000000000000000000000000000000000000000000000000000009004806306fdde031461008457806355ab5a7c146100a2578063842fc1a3146100d25780638da5cb5b146100ee578063a7094c341461010c578063e1d1fe1f1461012a575b600080fd5b61008c61015a565b6040516100999190610614565b60405180910390f35b6100bc60048036038101906100b791906104b7565b6101e8565b6040516100c99190610636565b60405180910390f35b6100ec60048036038101906100e791906104b7565b610200565b005b6100f66103ed565b60405161010391906105a7565b60405180910390f35b610114610413565b60405161012191906105f9565b60405180910390f35b610144600480360381019061013f9190610509565b610439565b60405161015191906105a7565b60405180910390f35b6000805461016790610774565b80601f016020809104026020016040519081016040528092919081815260200182805461019390610774565b80156101e05780601f106101b5576101008083540402835291602001916101e0565b820191906000526020600020905b8154815290600101906020018083116101c357829003601f168201915b505050505081565b60046020528060005260406000206000915090505481565b600260009054906101000a900473ffffffffffffffffffffffffffffffffffffffff1673ffffffffffffffffffffffffffffffffffffffff166323b872dd600160009054906101000a900473ffffffffffffffffffffffffffffffffffffffff1683670de0b6b3a76400006040518463ffffffff167c01000000000000000000000000000000000000000000000000000000000281526004016102a5939291906105c2565b602060405180830381600087803b1580156102bf57600080fd5b505af11580156102d3573d6000803e3d6000fd5b505050506040513d601f19601f820116820180604052508101906102f791906104e0565b506003819080600181540180825580915050600190039060005260206000200160009091909190916101000a81548173ffffffffffffffffffffffffffffffffffffffff021916908373ffffffffffffffffffffffffffffffffffffffff1602179055506001600460008373ffffffffffffffffffffffffffffffffffffffff1673ffffffffffffffffffffffffffffffffffffffff168152602001908152602001600020546103a7919061066d565b600460008373ffffffffffffffffffffffffffffffffffffffff1673ffffffffffffffffffffffffffffffffffffffff1681526020019081526020016000208190555050565b600160009054906101000a900473ffffffffffffffffffffffffffffffffffffffff1681565b600260009054906101000a900473ffffffffffffffffffffffffffffffffffffffff1681565b6003818154811061044957600080fd5b906000526020600020016000915054906101000a900473ffffffffffffffffffffffffffffffffffffffff1681565b60008135905061048781610815565b92915050565b60008151905061049c8161082c565b92915050565b6000813590506104b181610843565b92915050565b6000602082840312156104c957600080fd5b60006104d784828501610478565b91505092915050565b6000602082840312156104f257600080fd5b60006105008482850161048d565b91505092915050565b60006020828403121561051b57600080fd5b6000610529848285016104a2565b91505092915050565b61053b816106c3565b82525050565b61054a8161070b565b82525050565b6105598161072f565b82525050565b600061056a82610651565b610574818561065c565b9350610584818560208601610741565b61058d81610804565b840191505092915050565b6105a181610701565b82525050565b60006020820190506105bc6000830184610532565b92915050565b60006060820190506105d76000830186610532565b6105e46020830185610532565b6105f16040830184610550565b949350505050565b600060208201905061060e6000830184610541565b92915050565b6000602082019050818103600083015261062e818461055f565b905092915050565b600060208201905061064b6000830184610598565b92915050565b600081519050919050565b600082825260208201905092915050565b600061067882610701565b915061068383610701565b9250827fffffffffffffffffffffffffffffffffffffffffffffffffffffffffffffffff038211156106b8576106b76107a6565b5b828201905092915050565b60006106ce826106e1565b9050919050565b60008115159050919050565b600073ffffffffffffffffffffffffffffffffffffffff82169050919050565b6000819050919050565b60006107168261071d565b9050919050565b6000610728826106e1565b9050919050565b600061073a82610701565b9050919050565b60005b8381101561075f578082015181840152602081019050610744565b8381111561076e576000848401525b50505050565b6000600282049050600182168061078c57607f821691505b602082108114156107a05761079f6107d5565b5b50919050565b7f4e487b7100000000000000000000000000000000000000000000000000000000600052601160045260246000fd5b7f4e487b7100000000000000000000000000000000000000000000000000000000600052602260045260246000fd5b6000601f19601f8301169050919050565b61081e816106c3565b811461082957600080fd5b50565b610835816106d5565b811461084057600080fd5b50565b61084c81610701565b811461085757600080fd5b5056fea26469706673582212205f28c383c27d04ec2b31a37024a401cd6a097ee5c0495a3143cdf9367b42050764736f6c63430008030033",
  "immutableReferences": {},
  "source": "// SPDX-License-Identifier: MIT\npragma solidity 0.8.3;\n\nimport \"./PMToken.sol\";\n\ncontract PomodoroManager {\n    string public name = \"Pomodoro Manager\";\n    address public owner;\n    PMToken public pmToken;\n\n    address[] public doers; // people who completes pomodoros\n    mapping(address => uint256) public pomodorosCompleted;\n\n    constructor(PMToken _pmToken) {\n        pmToken = _pmToken;\n        owner = msg.sender;\n    }\n\n    function redeemToken(address _doer) public {\n        // TODO: should require to not be called by the same doer in less than 30 minutes\n        pmToken.transferFrom(owner, _doer, 1 * 10**18);\n        doers.push(_doer);\n        pomodorosCompleted[_doer] = pomodorosCompleted[_doer] + 1;\n    }\n}\n",
  "sourcePath": "/Users/alvarofarina/Projects/pomodoro-mate-sc/contracts/PomodoroManager.sol",
  "compiler": {
    "name": "solc",
    "version": "0.8.3+commit.8d00100c.Emscripten.clang"
  },
  "schemaVersion": "3.4.1",
  "updatedAt": "2021-06-14T20:15:34.618Z",
  "devdoc": {
    "kind": "dev",
    "methods": {},
    "version": 1
  },
  "userdoc": {
    "kind": "user",
    "methods": {},
    "version": 1
  }
}