{
  "contractName": "PomodoroManager",
  "abi": [
    {
      "inputs": [
        {
          "internalType": "contract PMToken",
          "name": "_pmToken",
          "type": "address"
        }
      ],
      "stateMutability": "nonpayable",
      "type": "constructor"
    },
    {
      "inputs": [
        {
          "internalType": "uint256",
          "name": "",
          "type": "uint256"
        }
      ],
      "name": "doers",
      "outputs": [
        {
          "internalType": "address",
          "name": "",
          "type": "address"
        }
      ],
      "stateMutability": "view",
      "type": "function"
    },
    {
      "inputs": [],
      "name": "name",
      "outputs": [
        {
          "internalType": "string",
          "name": "",
          "type": "string"
        }
      ],
      "stateMutability": "view",
      "type": "function"
    },
    {
      "inputs": [],
      "name": "pmToken",
      "outputs": [
        {
          "internalType": "contract PMToken",
          "name": "",
          "type": "address"
        }
      ],
      "stateMutability": "view",
      "type": "function"
    },
    {
      "inputs": [
        {
          "internalType": "address",
          "name": "",
          "type": "address"
        }
      ],
      "name": "pomodorosCompleted",
      "outputs": [
        {
          "internalType": "uint256",
          "name": "",
          "type": "uint256"
        }
      ],
      "stateMutability": "view",
      "type": "function"
    },
    {
      "inputs": [
        {
          "internalType": "address",
          "name": "_doer",
          "type": "address"
        }
      ],
      "name": "redeemToken",
      "outputs": [],
      "stateMutability": "nonpayable",
      "type": "function"
    }
  ],
  "bytecode": "0x60806040526040518060400160405280601081526020017f506f6d6f646f726f204d616e61676572000000000000000000000000000000008152506000908051906020019062000051929190620000cd565b503480156200005f57600080fd5b5060405162000aa638038062000aa6833981810160405281019062000085919062000194565b80600160006101000a81548173ffffffffffffffffffffffffffffffffffffffff021916908373ffffffffffffffffffffffffffffffffffffffff1602179055505062000287565b828054620000db9062000208565b90600052602060002090601f016020900481019282620000ff57600085556200014b565b82601f106200011a57805160ff19168380011785556200014b565b828001600101855582156200014b579182015b828111156200014a5782518255916020019190600101906200012d565b5b5090506200015a91906200015e565b5090565b5b80821115620001795760008160009055506001016200015f565b5090565b6000815190506200018e816200026d565b92915050565b600060208284031215620001a757600080fd5b6000620001b7848285016200017d565b91505092915050565b6000620001cd82620001e8565b9050919050565b6000620001e182620001c0565b9050919050565b600073ffffffffffffffffffffffffffffffffffffffff82169050919050565b600060028204905060018216806200022157607f821691505b602082108114156200023857620002376200023e565b5b50919050565b7f4e487b7100000000000000000000000000000000000000000000000000000000600052602260045260246000fd5b6200027881620001d4565b81146200028457600080fd5b50565b61080f80620002976000396000f3fe608060405234801561001057600080fd5b5060043610610074576000357c01000000000000000000000000000000000000000000000000000000009004806306fdde031461007957806355ab5a7c14610097578063842fc1a3146100c7578063a7094c34146100e3578063e1d1fe1f14610101575b600080fd5b610081610131565b60405161008e9190610593565b60405180910390f35b6100b160048036038101906100ac9190610444565b6101bf565b6040516100be91906105b5565b60405180910390f35b6100e160048036038101906100dc9190610444565b6101d7565b005b6100eb6103a0565b6040516100f89190610578565b60405180910390f35b61011b60048036038101906101169190610496565b6103c6565b6040516101289190610534565b60405180910390f35b6000805461013e906106f3565b80601f016020809104026020016040519081016040528092919081815260200182805461016a906106f3565b80156101b75780601f1061018c576101008083540402835291602001916101b7565b820191906000526020600020905b81548152906001019060200180831161019a57829003601f168201915b505050505081565b60036020528060005260406000206000915090505481565b600160009054906101000a900473ffffffffffffffffffffffffffffffffffffffff1673ffffffffffffffffffffffffffffffffffffffff1663a9059cbb82670de0b6b3a76400006040518363ffffffff167c010000000000000000000000000000000000000000000000000000000002815260040161025892919061054f565b602060405180830381600087803b15801561027257600080fd5b505af1158015610286573d6000803e3d6000fd5b505050506040513d601f19601f820116820180604052508101906102aa919061046d565b506002819080600181540180825580915050600190039060005260206000200160009091909190916101000a81548173ffffffffffffffffffffffffffffffffffffffff021916908373ffffffffffffffffffffffffffffffffffffffff1602179055506001600360008373ffffffffffffffffffffffffffffffffffffffff1673ffffffffffffffffffffffffffffffffffffffff1681526020019081526020016000205461035a91906105ec565b600360008373ffffffffffffffffffffffffffffffffffffffff1673ffffffffffffffffffffffffffffffffffffffff1681526020019081526020016000208190555050565b600160009054906101000a900473ffffffffffffffffffffffffffffffffffffffff1681565b600281815481106103d657600080fd5b906000526020600020016000915054906101000a900473ffffffffffffffffffffffffffffffffffffffff1681565b60008135905061041481610794565b92915050565b600081519050610429816107ab565b92915050565b60008135905061043e816107c2565b92915050565b60006020828403121561045657600080fd5b600061046484828501610405565b91505092915050565b60006020828403121561047f57600080fd5b600061048d8482850161041a565b91505092915050565b6000602082840312156104a857600080fd5b60006104b68482850161042f565b91505092915050565b6104c881610642565b82525050565b6104d78161068a565b82525050565b6104e6816106ae565b82525050565b60006104f7826105d0565b61050181856105db565b93506105118185602086016106c0565b61051a81610783565b840191505092915050565b61052e81610680565b82525050565b600060208201905061054960008301846104bf565b92915050565b600060408201905061056460008301856104bf565b61057160208301846104dd565b9392505050565b600060208201905061058d60008301846104ce565b92915050565b600060208201905081810360008301526105ad81846104ec565b905092915050565b60006020820190506105ca6000830184610525565b92915050565b600081519050919050565b600082825260208201905092915050565b60006105f782610680565b915061060283610680565b9250827fffffffffffffffffffffffffffffffffffffffffffffffffffffffffffffffff0382111561063757610636610725565b5b828201905092915050565b600061064d82610660565b9050919050565b60008115159050919050565b600073ffffffffffffffffffffffffffffffffffffffff82169050919050565b6000819050919050565b60006106958261069c565b9050919050565b60006106a782610660565b9050919050565b60006106b982610680565b9050919050565b60005b838110156106de5780820151818401526020810190506106c3565b838111156106ed576000848401525b50505050565b6000600282049050600182168061070b57607f821691505b6020821081141561071f5761071e610754565b5b50919050565b7f4e487b7100000000000000000000000000000000000000000000000000000000600052601160045260246000fd5b7f4e487b7100000000000000000000000000000000000000000000000000000000600052602260045260246000fd5b6000601f19601f8301169050919050565b61079d81610642565b81146107a857600080fd5b50565b6107b481610654565b81146107bf57600080fd5b50565b6107cb81610680565b81146107d657600080fd5b5056fea264697066735822122007a2d10593399f5df4407e8149617fc02431dd52fc8b3586eab19ba50e60fb5d64736f6c63430008030033",
  "immutableReferences": {},
  "source": "// SPDX-License-Identifier: MIT\npragma solidity ^0.8.3;\n\nimport \"./PMToken.sol\";\n\ncontract PomodoroManager {\n    string public name = \"Pomodoro Manager\";\n    PMToken public pmToken;\n\n    address[] public doers; // people who completes pomodoros\n    mapping(address => uint256) public pomodorosCompleted;\n\n    constructor(PMToken _pmToken) {\n        pmToken = _pmToken;\n    }\n\n    function redeemToken(address _doer) public {\n        // TODO: should require to not be called by the same doer in less than 30 minutes\n        // pmToken.transfer(_doer, 1 * 10**18);\n        pmToken.transfer(_doer, 1 * 10**18);\n        doers.push(_doer);\n        pomodorosCompleted[_doer] = pomodorosCompleted[_doer] + 1;\n    }\n}\n",
  "sourcePath": "/Users/alvarofarina/Projects/pomodoro-mate-sc/contracts/PomodoroManager.sol",
  "compiler": {
    "name": "solc",
    "version": "0.8.3+commit.8d00100c.Emscripten.clang"
  },
  "schemaVersion": "3.4.1",
  "updatedAt": "2021-06-15T21:54:11.301Z",
  "devdoc": {
    "kind": "dev",
    "methods": {},
    "version": 1
  },
  "userdoc": {
    "kind": "user",
    "methods": {},
    "version": 1
  }
}